:020000022000DC
:1060000000000120756302005D6302005F6302000F
:106010006163020063630200656302000000000028
:1060200000000000000000000000000067630200A4
:1060300069630200000000006B6302006D630200F0
:10604000318B02006F630200058D02006F63020056
:106050006F6302006F630200B98B02006F6302007E
:106060006F6302006F6302006F6302006F630200E0
:106070006F6302002D8E02006F6302006F630200E7
:106080006F6302001D6D02006F6302006F63020008
:106090006F6302006F630200DDED02006F630200B8
:1060A0006F6302006F6302006F6302006F630200A0
:1060B0006F6302006F630200000000000000000038
:1060C0006F6302006F6302006F6302006F63020080
:1060D0006F6302006F6302006F6302000000000044
:1060E00000000000000000000000000000000000B0
:1060F00000000000000000000000000000000000A0
:10610000000000000000000000000000000000008F
:10611000000000000000000000000000000000007F
:10612000000000000000000000000000000000006F
:10613000000000000000000000000000000000005F
:10614000000000000000000000000000000000004F
:10615000000000000000000000000000000000003F
:10616000000000000000000000000000000000002F
:10617000000000000000000000000000000000001F
:10618000000000000000000000000000000000000F
:1061900000000000000000000000000000000000FF
:1061A00000000000000000000000000000000000EF
:1061B00000000000000000000000000000000000DF
:1061C00000000000000000000000000000000000CF
:1061D00000000000000000000000000000000000BF
:1061E00000000000000000000000000000000000AF
:1061F000000000000000000000000000000000009F
:10620000354936480A1A02D0072291438D4634494F
:1062100034480A1A06D00722914381F309880222E2
:1062200082F3148830483149314A00F044F831484B
:106230003149324A00F03FF831483249324A00F0E1
:106240003AF832483249334A00F035F83248334997
:10625000334A00F030F833483349344A00F02BF821
:1062600033483449344A00F026F83448344900228F
:1062700000F02CF833483449002200F027F8334866
:106280003349091A082902DB002202604160314AC1
:1062900090471F481F49884205D00268043003B464
:1062A000904703BCF7E700208646EC46002000211B
:1062B000294A9047FEE7884207D0521A05D0037852
:1062C00001300B700131013AF9D17047884202D098
:1062D00002700130FAE770470000012000E0002062
:1062E0000000012000000120B8790300E42B002009
:1062F000A82C0020D0630200D0630200882D030088
:10630000B8790300E42B0020E42B0020342F030095
:10631000342F0300342F0300342F0300342F0300E5
:10632000342F0300342F0300342F0300B879030007
:106330007C7A0300A82C0020A82C0020A82C002088
:106340003C3B00203C3B00203C3B00203C3B0020F1
:106350003C5B00209D630200CDB30200FEE7FEE738
:10636000FEE7FEE7FEE7FEE7FEE7FEE7FEE7FEE705
:1063700000F002B8FFF7FCBF0F484FF00701884359
:1063800085460E4880470E48016841F4700101605F
:10639000BFF34F8FBFF36F8FFFF732BF09480A4932
:1063A0000A4A884207D0521A05D0037801300B7090
:1063B0000131013AF9D170470000012029B60200ED
:1063C00088ED00E0202F0300D02B0020E42B0020DC
:1063D000032811D8012A0AD101290FD100F10E0298
:1063E000D2B20D4B00EB40001A5400207047012937
:1063F000F7D0022904D049B1072070470022F8E7FE
:10640000054B00EB400018444270EEE7024B00EBF6
:10641000400018448270E8E7A82C002008B501224B
:1064200002210020FFF7D4FF08B1072810D107226E
:1064300002210120FFF7CCFF08B1072808D1002175
:106440000A220846FFF7C4FF10B1072808BF002042
:1064500008BD00000388102B10B502D0112B1ED0F0
:1064600010BD1A4C2168B1B901220846FFF7B0FFF0
:1064700008B1072824D1072202210120FFF7A8FF35
:1064800008B107281CD1042202210020FFF7A0FF39
:1064900008B1072814D1236801332360E0E70B4AD1
:1064A0001368013B1360002BDAD1FFF7B7FF002818
:1064B000D6D0074B1B68002BD2D0BDE81040184740
:1064C000034B1B68002BE6D09847E4E7B82C00206C
:1064D000B42C002004F036BE0021084604F0E6BDCE
:1064E00010F1360F0AD060B148F2165348F211523B
:1064F00010F1380F08BF13461846704748F214537E
:10650000FAE70346F8E708B50846114602F050FAE4
:10651000002008BD30B5044685B0002002F0CAF95D
:10652000054678B9201D039004F061FB06490398E5
:1065300000952B462A4604F0B6FB05B0BDE8304076
:10654000FFF7CEBF05B030BD0765020008B50430C7
:1065500004F058FB02F0DAF9002008BD08B5043059
:1065600004F035FCBDE80840FFF7BABF08B5114696
:1065700004301A4604F055FBBDE80840FFF7B0BFF1
:106580001FB50021039001AA44F20100CDE90111D9
:1065900000F004F805B05DF804FB000038B572B6F1
:1065A00003F082FC03F0EEFA0028FBD1104B114CF3
:1065B000114D1249E41AE408240444F0010003F0E8
:1065C0002DFCD5F8F030DB0700D500BE0C4944F0B7
:1065D000020003F023FCBFF34F8FEA68094B02F47B
:1065E000E0621343EB60BFF34F8F00BFFDE700BFD6
:1065F000182E0300482E030000ED00E03F2F03009B
:106600004B2F03000400FA0510B5D0E90243D1E98D
:106610000202A04272EB03032CBF0120002010BD38
:1066200008B50A4800F063FB094AD2E90031C018F6
:10663000084BD3E9002341F10001904271EB0303C1
:1066400003D210F1807041F1000108BDE42B00205D
:10665000C02C0020382D002037B505460C460A48CE
:1066600001A901F0C2F860B10570446001A90648B3
:1066700001F0E5F818B1054800F03EFB002003B03A
:1066800030BD0420FBE700BF242D0020E42B0020B8
:10669000294B73B51E7804461EB90026304602B059
:1066A00070BD0028F9D0FFF7BBFFD4E90223904268
:1066B000994139D300230DF107008DF8073000F020
:1066C000BFF923692BB94FF0FF324FF0FF33C4E914
:1066D00002239DF8070000F0D7F9D4E90530984768
:1066E00000250DF107008DF8075000F0A9F9236986
:1066F000C3B1D4E90212B2F1FF3F08BFB1F1FF3FCD
:1067000005D05B1842F10002C4E9023235469DF81B
:10671000070000F0B9F9002DBFD00848214601F06C
:106720008BFFBBE71D46F2E7B3F1FF3F08BFB2F1B5
:10673000FF3FB2D0F1E700BFC82C0020682F030054
:1067400013B5114B114918680190082310485822BD
:1067500001F038F8044698B90E4A0F4801A900F034
:10676000B7F9044660B90C48012100F0A3FA0123EF
:106770000A4A0948194600F005FA094B01221A7025
:10678000204602B010BD00BF622F0300CC2C0020B9
:10679000242D002089680200E42B0020FFFF7F00E9
:1067A000C82C002030B56AB103684FF0FF344FF0B9
:1067B000FF355A614A1E5142C3E9024551411961F0
:1067C000002030BD0720FCE7F7B5044600250DF199
:1067D000070017460E468DF8075000F031F9D4E94E
:1067E0000223B3F1FF3F08BFB2F1FF3F07D1FFF72C
:1067F00017FF301841F10001C4E9020101259DF89D
:10680000070000F041F955B12369A76103B1266182
:106810002146002003B0BDE8F040FFF71DBF284629
:1068200003B0F0BD37B5054600240DF107008DF823
:10683000074000F005F9D5E90223B3F1FF3F08BF97
:10684000B2F1FF3F1FBF4FF0FF324FF0FF33C5E9FA
:10685000022301249DF8070000F016F934B12946FF
:10686000012003B0BDE83040FFF7F6BE204603B07C
:1068700030BD401A20F07F4070470000014800F012
:1068800036BA00BFE42B00202DE9F743064600F09E
:1068900019FA40B1624AD2E9003113F1807341F133
:1068A0000001C2E900310021304600F01AFA38B187
:1068B0005C4C236823B12068FFF7EAFE00232360C5
:1068C0000121304600F00DFA20B1FFF7A9FE564B2A
:1068D000C3E900015548534C01A900F0C0FF4FF037
:1068E000FF384FF0FF39A0B9DFF844814D4D4046E5
:1068F00001F0B8FE002800F08580D0E90223B3F152
:10690000FF3F08BFB2F1FF3F32D1404601F0A4FE85
:10691000EDE70378012B20D0022B08D1444D284607
:1069200001F09AFE002877D0C0E90289F7E75BB949
:106930004168D1E90223B3F1FF3F08BFB2F1FF3F45
:1069400002D03B4801F078FE01A9384800F0B2FFC0
:1069500001A9364800F083FFC5E7416823689942E2
:1069600002D100232360EFE7314801F07EFEEBE720
:10697000296891B12968D1E9020182428B412FD265
:106980002B68D3E90223B3F1FF3F08BFB2F1FF3F09
:1069900003D02968404601F04FFE404601F05CFEFE
:1069A000D0E902490746FFF73BFE201A69EB0109CF
:1069B000012879F1000318DBB0F5350F13D3FFF789
:1069C0005DFF1C4A02441C484FF49603002100F06E
:1069D000F9F890B92B6813B9304600F0CBF82F6066
:1069E00003B0BDE8F0832246EDE71348002100F034
:1069F0006EF93846FFF74CFE01E00D28F9D0002370
:106A00002B6074E7074B1B68002BE9D1304603B0BD
:106A1000BDE8F04300F0B2B8084B01221A7093E7CA
:106A2000C02C0020402D0020382D0020242D0020D7
:106A3000682F0300FFFFB400E42B0020C82C0020C7
:106A400070B5EFF3108672B60C4A946801239CB9B6
:106A500093600B4B0B4DD3F8801029401160C3F8A5
:106A60008050D3F8841051604FF0FF32C3F8842077
:106A7000047006B962B670BD0370FAE7442D0020B9
:106A800000E100E0FC06FFBD084B9A6810B55AB162
:106A900050B9EFF3108172B6054A1C6814605C6847
:106AA0005460986001B962B610BD00BF442D00204B
:106AB00000E100E0435882B03BB10023435043580B
:106AC0000193019B012002B070471846FBE70000CC
:106AD000F8B5204B4479204E43F824201F4A204B20
:106AE00006EBC4049B1A2279DB081B0432B143F085
:106AF00002001C4903F092F90820F8BD02680C88D6
:106B0000C2F8084590F904508A7804795201002DA2
:106B1000D2B219DB14494F1987F8002301226D09FD
:106B200004F01F0402FA04F441F82540427906EB10
:106B3000C201012446F832000C7143F003000B49F6
:106B400003F06CF90020D8E7094904F00F040A5556
:106B5000ECE700BF582D0020502D0020182E030018
:106B6000582E0300742F030000E100E0962F03006D
:106B700014ED00E0036801221A60704703680122E7
:106B80005A60704773B501F15005AD000068ADB2B1
:106B90004FF480348C400026C0F80843C0F84843C6
:106BA000465101F5A8714559019522F07F42019D9A
:106BB00040F82120C0F844430BB1C0F8044302B0B0
:106BC00070BD00002DE9F74F0D4622F07F440268AA
:106BD0004FF4803705F150068F408046B60002EB37
:106BE0008500C2F84873B6B2C2F80873D2F804152B
:106BF00099464FF0000BD0F84035C0F8401542F8E8
:106C000006B05B1A9259009223F07F43012B009A41
:106C10004FEA850A0CD1264B4FF4806043F0010304
:106C20009847D8F8003043F806B09B590193019B70
:106C3000D8F80010D1F80465C1F84473A31B23F001
:106C40007F43012B1CD11A4B05F5A875013443F085
:106C5000010341F825404FF480609847D8F8003090
:106C6000D3F804359E4209D1D8F800300020C3F88B
:106C70004473C3F8047303B0BDE8F08F0D20FAE746
:106C80008A44C9F1FF13CAF84045D1F80405221A15
:106C9000013A22F07F4203F57F439342EED3002A6C
:106CA000E2D10134CAF84045D1F804359842DAE718
:106CB000B02F030003680222C3F8442309B1C3F8CC
:106CC0000423704700684FF48271FFF7F3BE4FF45E
:106CD000803303FA01F10368C3F84813C3F80813BB
:106CE000704750318900006889B2FFF7E3BE03683E
:106CF000D3F804057047000090F90430002B09DB3D
:106D00005A09012103F01F0301FA03F3403202493B
:106D100041F82230704700BF00E100E0024B034A17
:106D20001B681068184700BF582D0020502D002008
:106D300070B5064D0646002455F8043B0BB13046AD
:106D400098470134042CF7D170BD00BF682D002096
:106D50004388033300EB830399420BD382884FF6B9
:106D6000FF739A4208D0038833B18068431C5842AD
:106D7000584170470220704701207047033080B2AD
:106D800040F2FE33984230B51FD8134B1A783AB907
:106D90001C895D892C440444A4B2B4F5806F0AD9DF
:106DA0001A7DAAB99A8BDC8B2244024492B2B2F5C6
:106DB000806F0DD801220A801446142202FB04338E
:106DC0005A8910445881002030BD48F20860FBE722
:106DD00048F20660F8E700BF9C2D00200B4A0C49E2
:106DE0005388142000FB0311CB6833B90420496891
:106DF00010700122074801F0EDB807490523137010
:106E000002238B80012209680023F3E7802D0020F4
:106E10009C2D0020D02B0020D82D002007B500236A
:106E200005490093054A09680548082301F038F828
:106E300003B05DF804FB00BFD82D0020C42F030071
:106E4000D02B002007B5002301460093034A0448D5
:106E5000082301F025F803B05DF804FBBC2F030004
:106E6000D02B002013B500230C4600930146084A9E
:106E70000848042301F014F838B9074B142101FB2A
:106E8000043101230B7402B010BD48F20D60FAE723
:106E9000B82F0300D02B00209C2D002037B50A48C6
:106EA0000A4B42689C881968538803250333057090
:106EB0009BB2002000909B0001EB8401044800F08D
:106EC000EFFF03B030BD00BF802D0020D82D002083
:106ED000D02B002010B50146044800F086FC1C228F
:106EE0000446002108F071FA204610BDC42D002090
:106EF00038B5144B14220D4602FB00302B68446851
:106F000004F58051A3B15C88033403EB84048C4204
:106F100015D22368013312D02046FFF719FF01284C
:106F200008D002280BD00028F1D12C60012038BDF8
:106F30000834ECE76388033304EB8304E7E70020BD
:106F4000F5E700BF9C2D0020426873B504460D464E
:106F50006AB3234BD9688A4229D31B699A4226D83F
:106F600012F0030323D11F490089098988421ED1E9
:106F70002068916888421AD11B4841688A4203D927
:106F800001F580518A420DD381698A420CD901F5FD
:106F900080518A4208D201222A80B3FA83F0400944
:106FA00002B070BD1A46F7E748F20963F5E700261C
:106FB0002E800196288801A9FFF79AFF30B92B8807
:106FC00001339BB2012B2B80F3D9E9E7019B2268A7
:106FD00099689142EED16360024B1B892381DFE700
:106FE000D02B0020802D00209C2D00202DE9F8437F
:106FF0001C461D4B1B7806460F46154673B382B3DD
:107000007CB3DFF86C804FF01409A388012B02D900
:1070100048F2096020E009FB03F318F803302BB9AC
:10702000A0882146FFF764FF20B92060A3880133C0
:10703000A380EAE723681EB1998832889142EFD194
:107040001FB119883A889142EAD19A68C5E90023AC
:10705000064B1B892B810020BDE8F88348F20160B4
:10706000FAE748F20460F7E7782D0020802D002031
:107070009C2D002008B5074B5888191DFFF738FFD5
:1070800018B1BDE80840FFF709BFBDE80840FFF7A9
:10709000A5BE00BF802D00202DE9F0479F4FDFF8EF
:1070A000A08288B006463B6823B99D48414600F05F
:1070B000D6FB38603D6829784B1E052B07D8DFE8E2
:1070C00013F0200074007400060106015D0148F20F
:1070D0000E641422002103A808F077F941F61D532D
:1070E0009C4208BF00243B6804941A78023A042AA0
:1070F00000F2FC81DFE812F0DD01E9010B0213026E
:107100001A022EB1874B00225A604FF40644E0E782
:107110002B79032B1CD8DFE803F014022A35824AAE
:107120001378022B1AD0137D022B4FF0010317D1D5
:1071300014214B43D1180020D0544868FFF782FE39
:1071400003E001232B71FFF769FE002800F0B980EE
:10715000744B00225A6048F20D64BAE70023E7E757
:10716000704A13700023536041F61D54B1E76F4914
:107170006F48002302222B718A800968012200F0E7
:1071800029FFE2E76B4B684C5B88684A14214B434C
:10719000E11800262E714D681068156095884860CA
:1071A0000D810221E6549180C8E7B5F814A0AA7DAC
:1071B000DFF87491AEB1022AEB8806D9142101FBE5
:1071C0000A91DA1C088902440A81142202FB0A99F6
:1071D000C3F57F43B9F80A20FD331344A9F80A30F8
:1071E00093E7142303FB0A9318895C6804EB80047B
:1071F000062A69D8DFE802F0274E36441D5A0400FB
:1072000041F61D54AA7DEB88022A06D9142101FB00
:107210000A91DA1C088902440A81142202FB0A99A5
:10722000C3F57F43B9F80A20FD331344A9F80A30A7
:107230004FE74148414900234360AB690360FFF7D2
:1072400083FE00285BD00223AB7500230093042348
:10725000EA182146364800F023FE002831D048F2D3
:107260000D64CFE72B69002B14BF03230123AB75FB
:107270000023009305F10C02042304F10801E9E75F
:107280000123AB750022EB8800922A699B0004F170
:107290000C01DFE703290CBF05230623AB75002390
:1072A0000093042305F10802E118D3E70623AB7528
:1072B000224B1988204B5868FFF7D4FD044600285C
:1072C000A0D108B0BDE8F08748F20E649AE7002E1E
:1072D0007FF41BAF2B79012B34D0022B3FF444AF4A
:1072E000002B7FF4F4AE02232B710DF10A01EB6841
:1072F000039303A8CDE90466FFF726FE10B948F210
:107300000964E6E60498BDF80A108388EB800388D8
:107310002B81FFF7A7FD044629E000BF982D002030
:10732000C42D0020782D00209C2D0020D82D002079
:10733000D02B0020802D00205C2D0020E02D00208F
:10734000902D0020DFF8009203AA4B463146A81D7D
:10735000FFF74CFE044670B9B9F804100498FFF723
:1073600081FD044648F209639C423FF4FDAE002CC7
:107370007FF4AFAEA5E7C9E90066F3E7002E7FF41E
:10738000C4AE6C4B1A7BBAB11E731A78013A062A46
:107390003FF69DAE01A151F822F000BF47740200F4
:1073A0006D7402008B74020091740200CF700200B1
:1073B00097740200A97402001A78072AE5D801A17F
:1073C00051F822F0E57302008B7302008B73020008
:1073D0000B7402001F740200437402004374020025
:1073E000077402001A89544901321A8100225A8016
:1073F0001A730A78B2FA82F252099A720A7DB2FAC4
:1074000082F25209DA72012207E04C4958688A88F0
:107410004088033202448A8002221A70B5E75C88F1
:10742000454A4649142505FB042208685468506003
:107430008888108102200C60888000211174062247
:10744000EBE70722E9E79A7A32B9DA7A8AB90022B9
:107450001A705A805A6087E6374900229A72CA68C1
:10746000002AF2D1097C0029EFD05A80FFF702FEF2
:1074700051E70022DA72304A116A0029E7D192F806
:107480002420002AE3D00122EFE7FFF707FD42E7BF
:10749000FFF7A4FC3FE75A88274B142101FB023376
:1074A0005868FFF7CFFC36E700225A60FFF7B6FCBA
:1074B00031E701228DF80C201A89ADF818209A883E
:1074C000DB68ADF81A20059310E002228DF80C203D
:1074D0001A89ADF818209A88ADF81A20DA689B7DD1
:1074E00005929A1F534253418DF81C3003A8FFF7B1
:1074F0001FFC0026414612483E6000F0DBF91148AF
:10750000012100F091FA00287FF4CDADD9E60322E5
:107510008DF80C20DA88ADF818201A89D0E70422FB
:107520008DF80C20DB88ADF81830DFE705238DF8E7
:107530000C30DBE7802D00209C2D0020D82D002072
:10754000C42D0020D42D0020E42D00204068FFF73A
:10755000A3BD000008B50548012100F04DFA18B997
:10756000BDE80840FFF798BD08BD00BFD42D00203E
:107570002DE9F3419846374B1B7806460D46002B04
:107580005CD000295DD009884FF6FF7399425BD02B
:107590006B88002B58D06B689B0758D14AB92F894C
:1075A0000DF102013846FFF7E9FB30B102B0BDE84A
:1075B000F08113885788ADF8023001A8FFF78AFCE4
:1075C000044660B9BDF80220234B142101FB0233AD
:1075D00058890338C01B588148F20760E6E780F8F5
:1075E000008000238375BDF8023083826B680361DD
:1075F00001211A4800F00CFA2B882381B8F1030FFF
:107600006B88A38004BF0423A3754FF0000508BF57
:107610003368E06008BFA3611148E780658101A974
:1076200000F00DF936B1E36833600E4B75601B89CD
:10763000B5723381FFF78EFF0020B7E748F2016093
:10764000B4E748F20460B1E748F20360AEE748F2FD
:107650000260ABE7782D00209C2D0020942D0020A7
:10766000C42D0020802D002073B50D460446C8B1FE
:10767000C1B10DF10601FFF767FCB0B1BDF80630EE
:107680000B486668142202FB030001210C3000F055
:10769000BFF963682E600C336B600123A372002076
:1076A00002B070BD48F20460FAE748F20960F7E7FB
:1076B0009C2D002013B50446A8B10DF10601FFF77B
:1076C00043FC98B1BDF806200B4B142101FB02339B
:1076D000DA6872B1A27A62B1DA680020013ADA603F
:1076E000A07202B010BD48F20460FAE748F20960E7
:1076F000F7E748F20560F4E79C2D00200223002202
:10770000FFF736BF18B103230022FFF731BF48F25D
:1077100004607047114B1B7813B50446ABB14FF6AC
:10772000FF73984214D001A8FFF7D4FB98B105234A
:10773000037001230371C48001A9094800F07FF898
:10774000FFF708FF002002B010BD48F20160FAE721
:1077500048F20360F7E748F20760F4E7782D00206D
:10776000C42D002007B5ADF80600ADF804100DF1EA
:10777000060001A9FFF73AFC03B05DF804FB07B56A
:107780001346ADF806000A4600200DF10601FFF78A
:107790002DFC03B05DF804FB07B51346ADF80600F9
:1077A0000A460DF106000021FFF720FC03B05DF84A
:1077B00004FB20B119B103680B600020704748F248
:1077C0000460704710B561B1B2FBF3F403FB1424FD
:1077D000A4B244B9C0E9001484608281C381204608
:1077E00010BD0E20FCE70920FAE737B550E8013F4D
:1077F0009DB2C48925448489A54228BF2D1B0489D4
:10780000A54202BFBFF32F8F002207E0C5EA0305A0
:1078100040E80154002CE9D14FF001028DF803201B
:107820000193019A0A609DF8031001F0FF0321B152
:10783000006810FA82F003B030BD1846FBE70A88F2
:107840004B889A4209D150E8012FC2EA024240E82F
:107850000123002BF7D1012070470020704737B576
:1078600050E8023F1FFAA3F5C488A54202BFBFF348
:107870002F8F00220DE0C48925448489A54228BFAA
:107880002D1BC3EA054540E80254002CE8D14FF017
:1078900001028DF803200193019A0A609DF80310FC
:1078A00001F0FF0321B1006800EB124003B030BDCE
:1078B0001846FBE70A884B889A4209D150E8022F04
:1078C000C2EA224240E80223002BF7D10120704790
:1078D0000020704701F01F024B090121914000EB8D
:1078E000830000F065B84B0910B501F01F040121B9
:1078F000A14000EB830000F04FF8E04000F00100F1
:1079000010BD01F01F0301229A404B0900EB8300D8
:10791000D14300F065B84B0901F01F0150F8230076
:10792000C84000F0010070472DE9F0474F1E7F0965
:1079300080460E460137002558F8254008EB85099A
:10794000E44394FAA4F4B4FA84F44FEA451A202CE0
:1079500006D10135AF42EFD834462046BDE8F08766
:107960005444A642F5D921464046FFF7BCFF002803
:10797000F3D0D9F80040E44394FAA4F4B4FA84F4C0
:10798000E5E710B5034653E8000F0A4643E8002434
:1079900094F0000FF7D110BD10B5034653E8000F67
:1079A00040EA010243E8002494F0000FF6D110BD34
:1079B00010B5034653E8002F42EA010043E80004F3
:1079C00094F0000FF6D110BD10B5034653E8000F38
:1079D00000EA010243E8002494F0000FF6D110BD44
:1079E00010B5034653E8002F02EA010043E8000403
:1079F00094F0000FF6D110BD10B5034653E8000F08
:107A000000EB010243E8002494F0000FF6D110BD12
:107A100010B5034653E8002F02EB010043E80004D1
:107A200094F0000FF6D110BD10B5034653E8002FB7
:107A3000A2EB010043E8000494F0000FF6D110BD62
:107A40000121FFF7B5BF0021FFF7BEBF10B590B110
:107A5000D0E9012301689B1ADBB20A60013BDBB26B
:107A6000FF2B026802D10020107110BD11684C1C60
:107A700014600B70F2E70E20F7E737B505460024D7
:107A80000DF107008DF80740FEF7DAFF2A686B68F2
:107A9000116899420ED9481E106011F8013CEC683B
:107AA000298A01FB0344AB6811791B1ADBB29942A6
:107AB00038BF13719DF80700FEF7E6FF204603B0BC
:107AC00030BD37B5054600230DF107000C468DF893
:107AD0000730FEF7B5FF2A681368591C1160E96882
:107AE000641A298AB4FBF1F41C709DF80700FEF7B4
:107AF000CBFF03B030BD826810B504462AB143699C
:107B00000168006998470023A36010BD0EB403B557
:107B1000039921B104AB01AA019300F077F802B0F8
:107B20005DF804EB03B070470A2938B504460D46EA
:107B300002D10D21FFF7F8FFA3682268591CA1604C
:107B4000D554D4E901329A4204D32046BDE83840E6
:107B5000FFF7D1BF38BD00002DE9F84F9846DDE9A9
:107B60000A43154682460F460A464FF00109AA42CB
:107B70000FD2C14538BFC14613F0010B01D16CB91A
:107B800000240126B8F1010F1BD908F1FF386E431C
:107B9000F8E709F10109B2FBF5F2E8E79B070ED51A
:107BA000B8F1000F0CBF30262026A145E9D2013CD8
:107BB00031465046FFF7B8FF002CF6D1E0E720260B
:107BC000F3E7B7FBF6F39D42E1D9DFF83C80B7FB62
:107BD000F6F3504618F8031006FB1377FFF7A4FFDF
:107BE0003346AB42B6FBF5F6F1D2BBF1000F02D043
:107BF0000CB1A14501D3BDE8F88F20215046013CCE
:107C0000FFF792FFF4E700BFD52F03002DE9F74FF0
:107C1000054617468846002900F03E8118F8011BEA
:107C200049B92B7B002B00F03781284603B0BDE813
:107C3000F04FFFF760BF252940F0B780002698F885
:107C400000302D2B424608F1010823D0302B24D0E0
:107C50002B2B25D000242A2B02F1010123D13B68D4
:107C60001A1D1B683A601C440A4613782E2B26D135
:107C700001324FF0000A104610F8011BA1F1300C40
:107C8000BCF1090F1DD80A2303FB0A13A3F1300A24
:107C90000246F0E746F00106D1E746F00206CEE7DD
:107CA00046F00406CBE711F8013CA3F130000928A7
:107CB000DBD80A2202FB0434303C0A46CBE74FF003
:107CC000000A12F8011B01F0FB0068289046F8D06A
:107CD000782909D86F290CD8632962D022D82529A0
:107CE00063D0582900F0888098F80030002B95D197
:107CF00097E770390829F7D801A353F821F000BF9E
:107D0000737E0200E97C0200E97C0200097E020029
:107D1000E97C0200E77D0200E97C0200E97C0200C8
:107D2000F97D0200642901D06929DDD13A68D2F8D1
:107D30000090111D89EAE9723960A2EBE9724FF0F7
:107D4000010B092A35DCD34538BFD3462CB1B9F134
:107D5000000F01DB720700D5013CB30702D5BAF171
:107D6000000F03D0F00701D44CBB0024B9F1000F81
:107D70002DDAC9F100092D212846FFF7D5FE06F0BE
:107D80000302022A04D1BAF1000F01D11CBB002466
:107D9000CDE9004653460A2249462846FFF7DCFE55
:107DA000A2E73B681A1D19783A602846FFF7BCFE27
:107DB0009AE70A230BF1010BB2FBF3F2C1E7A345EB
:107DC000D4D220212846013CFFF7AEFECCE7710754
:107DD000D5D52B21D0E7A345DAD230212846013C66
:107DE000FFF7A2FED2E73968CDE900460A1D3A60E6
:107DF00053460A220968D0E739680A1D3A60CDE97E
:107E0000004653461022F5E73B681A1D3A6016F00B
:107E10000106D3F8009024D1B9F1000F03D04846F1
:107E200007F006FB0646B4421DD809F1FF3919F8E0
:107E3000011F00293FF458AF2846FFF775FEF6E70B
:107E400028460136FFF770FE19F806100029F7D111
:107E5000A642BFF449AF20212846013CFFF764FE4B
:107E6000F6E70026F0E720212846013CFFF75CFEFC
:107E7000D9E73B681A1D3A60302128461C68FFF795
:107E800053FE78212846FFF74FFE00220823CDE954
:107E900000322146102280E703B0BDE8F08F00BF1A
:107EA0002DE9F743DDF8288088B93E4B3E483F4A2C
:107EB000C01AC0080E243E4B009400043D4940F017
:107EC000010001F0C2FF204603B0BDE8F0834AB9CB
:107ED000344B3548384AC01AC0080E24344B00943D
:107EE0000004EBE7D0F800E0BEF1000F09D12D4B04
:107EF0002D48324AC01AC00808242D4B00940004B3
:107F0000DCE74BB9274B28482D4AC01AC008092482
:107F1000274B00940004D1E74568D5F80490B3FBE3
:107F2000F9F509FB15354DB11E4B1F48254AC01AFE
:107F3000C00809241E4B00940004BFE78D0709D038
:107F4000184B1948204AC01AC0081024184B009436
:107F50000004B3E712F0030F09D0124B12481B4A7A
:107F6000C01AC0081024124B00940004A6E7C5688C
:107F7000A9420DD34D1EEC180569AC4208D8CDF8C6
:107F80002880DEF80C40A44603B0BDE8F04360470B
:107F9000044B05480E4AC01AC0081024044B009434
:107FA00000048BE7182E0300882E0300E52F030042
:107FB0008E310300EA2F0300673003001330030003
:107FC000263003006D30030097300300AF3003000C
:107FD000D2300300F7B580B92A4B2B482B4AC01A80
:107FE000C0080E242A4B009400042A4940F00100E6
:107FF00001F02BFF204603B0F0BDD0F800C0BCF16B
:10800000000F09D11F4B2048234AC01AC00808247A
:108010001F4B00940004E8E74AB91A4B1A481F4A5C
:10802000C01AC00809241A4B00940004DDE7456813
:10803000D5F800E00EF1FF350D4209D0114B124882
:10804000174AC01AC0081024114B00940004CCE752
:10805000C568A9420CD34D1E0EFB02540569AC4203
:1080600006D8DCF81040A44603B0BDE8F0406047F5
:10807000044B05480B4AC01AC0081024044B009456
:108080000004B2E7182E0300882E0300E52F03003A
:108090007B310300EA2F0300133003002630030076
:1080A000F93003001F31030029DF704728DF7047D4
:1080B00070B503689E6886B004460D466EB1142202
:1080C0000021684607F081F9A3680593237901959B
:1080D0002BB1012B0DD06846B04706B070BD01230F
:1080E0008DF8003023690293E36803936369049376
:1080F000F1E702238DF80030E3681B030293F5E7F4
:10810000034B187A0122B0FA80F05A744009704784
:10811000FC2D002038B5234D234C2B7A3BB9234945
:108120002348FFF79CFB206008B9686038BD022334
:1081300024682B72237973B1012B24D020460321AC
:10814000FFF7B6FF00232B726B6018491848BDE893
:108150003840FFF7AFBBD4E90523D21AB2F5805FF0
:10816000D4E9031028BF4FF480529208012A38BF87
:10817000012219441844FFF797FF50B11128DDD1AF
:1081800001232B72D2E7D4E903031844FFF78EFFD3
:10819000F3E72B7C002BC9D1BDE83840022000F06A
:1081A00009B800BFFC2D0020142E0020102E002046
:1081B000EC2D002038B5234C237A002B41D0022B24
:1081C00009D1032830D0204B00221B68E2601A79C5
:1081D0003AB1012A22D0637C7BBBBDE83840FFF76F
:1081E00099BFD3E905128D1AB5F5805F94BF521976
:1081F00002F580529A619142EDD102284FF00003BE
:1082000008BF19462372104B18BF0D211868FFF7DD
:108210004FFF0E490E48FFF74DFBDCE71A690132AC
:108220001A615B699A42E7E7E3680133082B01D8DA
:10823000E360D0E70023E360DFE7BDE8384006F005
:10824000A3BD38BDFC2D0020142E0020102E0020D0
:10825000EC2D0020831E012B01D8FFF7ABBF704728
:1082600000F0FD03012B08D1044B00225A74421E7A
:10827000504250411874FFF74DBF7047FC2D00204D
:108280002DE9F84FB0F806A04579D2F800B09DF876
:1082900028900AFB05F5043D88460BEB0301A94233
:1082A00003F1040488BFA5EB030BB4FBFAF6074601
:1082B0000AFB1644C2F800B04EB9AAEB04055D45AE
:1082C00028BF5D46BBF1000F04D1BDE8F88F3F68C1
:1082D000013EF1E7043408EB06003C442A46B9F1BC
:1082E000000F0DD02146ABEB050B07F045F8DA4542
:1082F0002E443F6855464FF0000428BF5D46E1E735
:1083000001462046EFE7FFF7A1BBF8B546790146E5
:10831000721E0546002393422D6803D30024A64213
:1083200002D8F8BD0133F6E70F682846FFF7C9FB0E
:1083300001343946F3E72DE9F843068ACD1C074698
:10834000FFF79BFB043E35440446B5FBF6F5F0B160
:108350004FF48073EDB28380C680013D0760814693
:108360004FF00008A84512D23846FFF786FB0646B4
:1083700048B163790133637108F10108C9F800005D
:1083800007608146EEE72046FFF7BFFF34462046F0
:10839000BDE8F88301210430FFF73ABB10B5012195
:1083A00004460430FFF740FBC0B220B92046BDE8C8
:1083B0001040FFF7AABF10BD1FB503920022009224
:1083C00003AAFFF75DFF05B05DF804FB1FB503923C
:1083D0000122009203AAFFF753FF05B05DF804FBEA
:1083E00041DF7047064B10B500241C70054B1C6024
:1083F000BFF35F8F0449054800F008F9204610BD1F
:10840000202E0020242E0020AC310300182E002046
:1084100007B500230DF107008DF80730FEF710FBBC
:10842000F1EE103A23F09F03E1EE103ABFF35F8FB5
:108430000A4B4022C3F884219DF80700FEF724FB75
:1084400006F0B2FC20B103B05DF804EBFFF7C8BF43
:1084500020BF40BF20BF03B05DF804FB00E100E097
:10846000026813685268934291BFD01A8068013045
:10847000801888BFC01A7047F8B51546026817689B
:1084800016685268964284BF82680132961B0B467A
:10849000C2684168B542044607FB02110BD86A4323
:1084A000184606F069FFA3683D449D4288BF002539
:1084B00023681D60F8BD06FB02F73A46184606F031
:1084C0005BFFE2686168AD1B6A43384406F054FF05
:1084D000EEE7036881681A685B688B4234BF01333A
:1084E0000023D31A58425841704773B500230446FD
:1084F0000DF107000D468DF80730FEF7A1FA204672
:10850000FFF7E7FF10B1237C002B3BD12368A16864
:108510005E685A688A4234BF013200225A6028B12C
:108520001A688A4234BF013200221A60E268636826
:10853000511E072920D8DFE801F004101F141F1F67
:108540001F182A789A552046FFF78AFF23689A68F1
:10855000824200D29860002415E02A8823F8162071
:10856000F1E72A6843F82620EDE7D5E9000103EB9F
:10857000C603C3E90001E6E7294602FB063006F020
:10858000FBFEE0E704249DF80700FEF77DFA204695
:1085900002B070BD7FB5054601911446AAB10DF138
:1085A0000F0000268DF80F60FEF74AFA2846FFF705
:1085B00057FFA04201990BD322462846FFF75CFFE4
:1085C00034469DF80F00FEF75FFA204604B070BDF8
:1085D0000524F6E737B5054600240DF107008DF8B0
:1085E0000740FEF72DFA2B681C609DF807005C60C1
:1085F0009C60FEF749FA03B030BD836800225A60E0
:10860000C3E904229A60DA601A6070470B684A680E
:108610004360934208BF0023016008BF4360704776
:10862000436843B10268916852680B4493424360C7
:1086300004BF00234360704770B5446806460D468A
:10864000206818B1B3682946984718B923682B6089
:10865000256070BD2468F3E74368186808B10268B4
:108660001A6070474368186870474368186800B913
:108670007047884203D102681A60012070470346A0
:108680000068F4E710B50D49A1F59472914201D844
:1086900000200FE08C1AE30F03EBE4035B1002EB06
:1086A000C30452F83330834205D802D204F10802E1
:1086B000ECE7606810BD2146E8E700BFB83603006C
:1086C00008B5FFF7DFFF024B002808BF184608BDBA
:1086D0007B35030038B5074C051E04F1080318BFAD
:1086E0001C4623682BB11A6822605B6828469847AD
:1086F000F7E738BD302E002020B9054B01225A7013
:10870000FFF7E8BF012802D1014A9070F8E77047EF
:10871000282E002020B9034B01225A70FFF7DABF40
:10872000704700BF282E002038B50E4C2378B3B90F
:108730000D486360A3602361E36000F0C9F905465A
:1087400006F032FB08B900F0CFF901232370074B84
:10875000D3F800340BB10123A370284638BD85251A
:10876000F5E700BF282E0020F98602000000014036
:1087700037B50D4C00230DF107008DF80730FEF7DB
:108780005FF9E368013BE360E36833B9074BD3F873
:10879000005415B900F0BAF9A5709DF80700FEF76E
:1087A00073F903B030BD00BF282E00200000014047
:1087B000012813B50CD0032820D038B9134B01225F
:1087C000C3F88020BFF34F8FBFF36F8F02B010BD8F
:1087D0000F4C00230DF107008DF80730FEF730F93C
:1087E00023780BB9FFF7A0FFE3689DF8070001337A
:1087F000E3600123A370FEF747F9E7E700F074F99F
:1088000002B0BDE81040FFF7B3BF00BF00E100E0D9
:10881000282E002031DF70471FB500238DF8070098
:108820000DF10F008DF80F30FEF70AF906F0BCFAD3
:1088300050B909480DF10701FFF757FE0648FFF749
:1088400048FE08B100F0D2FA9DF80F00FEF71CF9BF
:1088500005B05DF804FB00BFB82D030007B520B1DB
:1088600003280DD003B05DF804FB104B1B78012BDF
:10887000F8D100F0BBFA03B05DF804EB00F0BEBA2B
:1088800000230DF107008DF80730FEF7D9F80748EF
:108890000378012B05D10649013000F067FA00F09A
:1088A00093FA9DF80700FEF7EFF8DBE78C2E002027
:1088B0001988020013B5124C2378FBB9114A8DF8C0
:1088C0000730002808BF10460288A4F801200DF1E7
:1088D0000700FEF7B5F806F067FA30B90A49601CE0
:1088E00000F044FA40B900F06FFA9DF80700012348
:1088F0002370FEF7C9F8002002B010BD8520FBE709
:108900008C2E0020C23603001988020007B5002310
:108910000DF107008DF80730FEF792F806F044FAE3
:1089200018B900F063FA00F069FA9DF80700FEF745
:10893000ABF80448FFF74EFE034B00221A7003B059
:108940005DF804FBB82D03008C2E00202DE9F743C1
:108950000024DFF8589005460E46A0460DF10700AA
:108960008DF80780FEF76CF806F01EFA074638B956
:10897000324629464846FFF70DFE044600F024FA29
:108980009DF80700FEF780F847B131462846FFF70B
:1089900041FF42F207039842044605D0022CDDD085
:1089A000204603B0BDE8F0830524F9E7B82D0300A5
:1089B000F8B505460C4604B9F8BD402C264628BF3C
:1089C0004026F7B239462846FFF7C0FF0028F9D104
:1089D000A41B3544EFE700001FB503788DF8003085
:1089E0004368019383688DF80830C368054A039390
:1089F000054B684653F8213052F82110984705B0CE
:108A00005DF804FB902E0020942E00201FB5037803
:108A10008DF800304368019383688DF80830C3688F
:108A2000054A0393054B684653F8213052F821104C
:108A3000984705B05DF804FB902E0020942E00208E
:108A4000F0B5194B90F800C091F81DE043F82C20C8
:108A5000164B16460A6943F82C20154B03F80CE018
:108A60000C4607460FCC89B06D460FC594E80F0041
:108A700085E80F00CDF810C0BEF1000F09D0002E20
:108A80000C4A694608BF3246381D00F0DFFC09B0C9
:108A9000F0BD002E084A694608BF324607F10C00B7
:108AA00000F0B6FAF3E700BF942E0020902E0020CD
:108AB000982E0020D98902000D8A020000F1804022
:108AC000002382B0036003680193019B02B07047EA
:108AD000044A137923B90121106091801846704728
:108AE000852070479C2E0020074B1A68D20704D4BB
:108AF000C02283F8002301221A604FF08043012234
:108B0000C3F81825704700BF00E100E04FF0804235
:108B100008B50223C2F808334FF48270FFF7CEFF86
:108B20000123D360D2F81834DB03FBD408BD000066
:108B30004FF0804110B5D1F8003163B14FF480702F
:108B4000FFF7BCFF0D4B58790122C1F8082310B97B
:108B50005A711B6898474FF08042D2F8043163B1D4
:108B60004FF48270FFF7AAFF0223C2F80833034BC9
:108B7000BDE810401B680120184710BD9C2E002046
:108B800000F1804000F5C040002382B0036003681C
:108B90000193019B02B07047800000F1A040D0F823
:108BA000002722F44032C0F80027D0F8003743EA0B
:108BB0000141C0F8001770472DE9F74F00244E4DD2
:108BC00001944FF48072012102F1804303F5C04308
:108BD00090B21B68012B06D1D5F804330B4202D0AA
:108BE000FFF7CEFF0C430432B2F5907F4FEA41010C
:108BF000EAD1414BD3F87C31012B0CD14FF4BE703C
:108C0000FFF7BEFF4FF0A04344F00044D3F8202507
:108C10000192C3F82025E3B2D3B1384F00250126D5
:108C2000344210D0AB0003F1804303F5C043D3F8C6
:108C30001005D3F8101557F8253023B1C1F30141C1
:108C4000C0F3042098470135082D4FEA4606E7D1C6
:108C5000002C48DA294D4FF0A048294E4FF000096A
:108C6000012716F9013B5A1C31D0C3F3C202083266
:108C70006A44DCB212F8042C03F03F0A03F0070345
:108C800007FA03F31A4222D00AF5E073504658F867
:108C90002330C3F3014BBBF1020F0CBF03210221B0
:108CA000FFF77AFF07FA0AF3C8F8203505EB0A0345
:108CB00093F9303055F823304BB1A109032904D082
:108CC000BBF1020F12D1012901D15046984709F199
:108CD0000109B9F1040FC4D1D8F820350193C8F8BF
:108CE0002035002BB9D103B0BDE8F08FBBF1030FE5
:108CF000EDD10229E8E700BF00600040A42E00206B
:108D0000F42E0020014B1B68184700BF002F0020E5
:108D10000E4B984237B50C4602D0002003B030BD50
:108D200000230DF107008DF80730FDF789FE084B91
:108D30001D7915B901221C601A719DF80700FDF715
:108D4000A3FE002DE9D01120E8E700BF002000407D
:108D5000002F0020034B984201BF034B00221A60F2
:108D60001A71704700200040002F002010B5124CEF
:108D70002378FBB9114B1960037813F0010F104BE6
:108D80001EBFD3F8042542F00102C3F80425D3F82E
:108D9000002222F00102C3F800224378094A5B0155
:108DA000DBB282F80D334FF40053136001232370BC
:108DB000002010BD8520FCE70C2F0020082F00208C
:108DC00000D0004000E100E0074B0022C3F8002182
:108DD00082B0D3F800210192019A0122C3F8042342
:108DE0001A6002B0704700BF00D00040024B012261
:108DF000C3F808235A60704700D00040084B012296
:108E0000C3F808235A60074B4FF40052C3F8802080
:108E1000BFF34F8FBFF36F8F034B00221A70704761
:108E200000D0004000E100E00C2F0020074B0022A2
:108E3000C3F8002182B0D3F800210192019AD3F83F
:108E40000805034B1B68C0B202B0184700D00040B1
:108E5000082F00200023435082B043580193019B08
:108E600002B070470A4610B54FF48E71FFF7F2FF5B
:108E7000136A9168C95C136A01331362C0F81C1548
:108E800010BD8B690A4610B54FF4847123B9FFF702
:108E9000E1FFD0F8183510BDFFF7DCFF536AD16849
:108EA000D0F81805C854536A01335362F3E7000041
:108EB0001FB501238DF80030044BCDE90110D3E933
:108EC00000126846904705B05DF804FB102F0020A3
:108ED00030B54D4DD5F804339A0585B051D5D5F848
:108EE0002431002B4DD04FF492712846FFF7B2FF8A
:108EF0004FF40173C5F80833444B93F829200AB99D
:108F000001226A60404902228DF80020D1F88024B5
:108F1000C1F8802403929A690292DA6801920022D1
:108F2000C3E906226846D3E9001290473648D0F8D4
:108F30001C315BB1354A5169136A99424DD992F897
:108F40002830002B49D11146FFF78CFF2E48D0F86E
:108F50004431002B56D04FF4A271FFF77BFF2B4B0F
:108F600093F829200AB1012202609A69002A49D0A7
:108F7000586AD96800229A6105B0BDE83040FFF711
:108F800097BFD5F804335B07D0D5D5F80831002B4F
:108F9000CCD01E4C1C482146FFF773FF636AA269C0
:108FA0009A42C3D1E369E1684BB1A3612369E360ED
:108FB0000023606AE3616362FFF77AFFB6E794F823
:108FC00029300BB901236B600F4B4FF40172C3F8CA
:108FD00008230023606AA361EEE70B484FF48E710B
:108FE000FFF738FF5369002BB0D05169029100237D
:108FF00091688DF80030019153616846D2E9001301
:109000009847A3E705B030BD00200040102F002096
:109010002DE9F843534D90F804802C2303FB0853AB
:10902000064693F82A300C469146002B40F0968075
:109030004D490068FFF76CFE0746002840F090801D
:1090400022683068511C0BD04FF0A041012393409F
:10905000C1F8083502F5E0734FF0030C41F823C066
:1090600061684B1C1FBF01F5E0734FF0A04C4FF03F
:10907000000E4CF823E0A369C0F8243594F814C01E
:10908000637DBCF1010F4CEA0303C0F86C35C0F8F6
:109090001415C0F80C251DD1A268531C1FBF02F582
:1090A000E0734FF0A0414FF0000C41F823C0E3689B
:1090B000591C0BD04FF0A04C01219940CCF8081559
:1090C00003F5E0714FF0030E4CF821E0C0F80835CD
:1090D000C0F810252C2202FB08F2AB18C3F804904C
:1090E0002369AB50B9F1000F20D04FF48E71247F6B
:1090F000FFF7B0FE4FF4A2713068FFF7ABFE3268A5
:109100001A4BC2F80433130B42F307326101002AF1
:10911000C9B21EDB1648841884F8001301215209D5
:1091200003F01F0301FA03F340F8223033680422EE
:10913000C3F800252C2303FB08530022C3E90622B1
:1091400083F829205A61012283F82A203846BDE895
:10915000F883084A03F00F03D154E7E70827F5E73F
:109160001127F3E7102F0020D18E020080000200AB
:1091700000E100E014ED00E0F8B503680579304C3B
:109180000022C3F800252C2202FB05425268A2B13E
:109190002C4AC3F808231A0B43F30733002B0CDBCC
:1091A00002F01F015B0901228A402033264941F861
:1091B0002320BFF34F8FBFF36F8F0068D0F80C658B
:1091C000D0F81415D0F80835D0F810254FF0FF3737
:1091D000BE42C0F8147518BF06F5E076C0F80C75ED
:1091E000C0F80875C0F810751EBF4FF0A0474FF0CB
:1091F000020C47F826C04E1C1FBF4FF0A04601F5D9
:10920000E071022746F82170511C1FBF4FF0A041AA
:1092100002F5E072022641F822605A1C1FBF03F5D6
:10922000E0734FF0A042022142F82310FFF792FDB5
:109230002C2303FB0544002384F82A306360F8BD27
:10924000102F00208402020000E100E00279044BAC
:109250002C2101FB02335869003818BF01207047E8
:10926000102F00202DE9F84F064690F8048089461B
:109270009246FFF7EBFF044600283CD1204F2C25F7
:1092800008FB057B4FF48E71CBF814A0CBF8089047
:10929000CBF820008BF828003068FFF7DBFD306842
:1092A000012383605946FFF7DDFDDBF804305D469E
:1092B0001BBB3068DBF814402B6A9C4211D8336822
:1092C000D3F81C21002AFBD00122DA6000202C23D5
:1092D00003FB087700237B61BDE8F88F95F8283001
:1092E0003BB9D0F81C31002BF8D05946FFF7BAFD36
:1092F000E2E70F20EBE71120EEE72046ECE700BFA6
:10930000102F00200023435082B043580193019B4B
:1093100002B070471FB501238DF80030044BCDE932
:109320000110D3E900126846904705B05DF804FBD0
:109330003C2F00207FB5434AD2F82461002E60D034
:1093400010464FF49271FFF7DDFF02238DF80030D5
:10935000D2F88034C2F880340393D2F83C350293BB
:10936000394BDA6801920022C3E906226846D3E944
:10937000001290473348D0F8443173B14FF4A271D2
:10938000FFF7C0FF304B9A693AB10022C3E90622C9
:10939000D968D0F83C05FFF7BDFF2A48D0F8203146
:1093A000ABB14FF49071FFF7ADFF0123C360264BC3
:1093B0005A6962B1D0F84C150291002299688DF873
:1093C000002001915A616846D3E9001290471D4878
:1093D000D0F858319BB14FF4AC71FFF793FF1A4BA3
:1093E0005A6962B1D0F84C150291002299688DF843
:1093F000002001915A616846D3E90012904704B0F9
:1094000070BDD2F81031002BB4D04FF488711046E3
:10941000FFF778FF0C4BD2F83C0599698842A9D137
:10942000DC69D96864B1D2F8005225F02005C2F891
:1094300000521A699C61DA60DE61FFF76BFF99E701
:109440009C61FAE7002000403C2F00202DE9F84302
:109450005A4E90F80480242303FB0863044693F8D3
:1094600020300D469146002B40F0A38054490068FF
:10947000FFF74EFC0746002840F09D802A682068D0
:10948000511C0BD04FF0A04101239340C1F8083587
:1094900002F5E0734FF0030C41F823C069684B1CE0
:1094A0001FBF01F5E0734FF0A04C4FF0000E4CF8D9
:1094B00023E0AB69C0F8243595F814C06B7DBCF18E
:1094C000010F4CEA0303C0F86C35C0F80C25C0F856
:1094D00014151DD1AA68531C1FBF02F5E0734FF08D
:1094E000A0414FF0000C41F823C0EB68591C0BD091
:1094F0004FF0A04C01219940CCF8081503F5E0711C
:109500004FF0030E4CF821E0C0F80835C0F81025E4
:10951000242202FB08F2B318C3F804902B69B3505D
:10952000B9F1000F2FD04FF488712A7FFFF7EAFEC0
:1095300020684FF49071FFF7E5FE20684FF49271B8
:10954000FFF7E0FE20684FF4A271FFF7DBFE4FF457
:10955000AC712068FFF7D6FE23681A49C3F80413DC
:10956000190B43F307335201002BD2B21CDB164810
:10957000C51885F8002301225B0901F01F0102FADA
:1095800001F140F8231023680822C3F800252423A2
:1095900003FB08660023C6E906337361012386F8DE
:1095A00020303846BDE8F883084B01F00F015A54CB
:1095B000E9E70827F5E71127F3E700BF3C2F002074
:1095C000359302001003420000E100E014ED00E0DA
:1095D000F8B5444C0579242303FB054302465B6838
:1095E0000068ABB1404BC0F8083340F30733002BA1
:1095F0004FEA10310CDB01F01F065B090121B1407D
:1096000020333A4E46F82310BFF34F8FBFF36F8FCE
:10961000D0F8003223F02003C0F80032242303FBEB
:1096200005439B692BB14FF4A271FFF76BFE012339
:1096300043604FF4AC71FFF765FE0123C360242340
:1096400003FB0543D0F858110029FBD0996919B1E3
:10965000D0F844110029F5D00023C0F80035136874
:10966000D3F80C75D3F81465D3F80825D3F8101582
:109670004FF0FF3C6745C3F80CC518BF07F5E0770E
:10968000C3F814C5C3F808C5C3F810C51EBF4FF012
:10969000A0434FF0020C43F827C0771C1FBF4FF0C8
:1096A000A04306F5E076022743F826704E1C1FBF44
:1096B00001F5E0714FF0A043022643F82160531CEE
:1096C0001FBF4FF0A04302F5E072022143F82210C1
:1096D000FFF740FB242303FB0544002384F82030DC
:1096E0006360F8BD3C2F00201003420000E100E061
:1096F0000279044B242101FB02335869003818BF5A
:10970000012070473C2F002001F06043B3F1005F5F
:109710002DE9F0470646884692463BD190F80490E2
:10972000FFF7E6FF0446002836D11D4F3068242598
:1097300005FB09754FF49071C5F814A0C5F80880B1
:10974000FFF7E0FD4FF4AC713068FFF7DBFD3368E5
:109750006A69A968C3F84415C3F8482501229A60CC
:109760006A68DAB9D3F82021D3F858011AB9002869
:10977000F8D00F2007E00028FBD10122DA60D3F8EF
:109780005821002AFBD0242303FB097700237B61A7
:10979000BDE8F0871020FBE71120F9E72046F7E746
:1097A0003C2F0020F0B595B01D46164608460C46E5
:1097B000FEF7F0FD1A9B0D93CDE9086500252B46B9
:1097C000082205A920460A958DF82C500C95FEF725
:1097D000FDFD079B0293069B03939DF814308DF8C3
:1097E000115003F00302012A1DD1BDF81420059D7C
:1097F000C3F3C203C2F383168DF81030B2000823FE
:109800000EA92046FEF7E2FDC5F3952508AB0093AF
:10981000324602AB0EA9284600F0BAFB2046FEF7FE
:10982000BDFD15B0F0BD022AF8D1BDF81650C3F346
:10983000C203C5F389158DF810300827082D2E4670
:1098400028BF08263B4632460EA92046FEF7BEFD3D
:10985000AD1B08AB02AA31460EA8374400F0FCFB52
:10986000002DEBD1DAE70000014B01221A7070479E
:10987000A12F00207047000070B50E4D06460FCD99
:1098800088B06C460FC495E80F00002E84E80F00E6
:10989000094A0A484FF0060308BF002269460093B0
:1098A000FFF7CEF808B1FCF76BFE054B1E7008B051
:1098B00070BD00BFE436030069980200EC2B002065
:1098C000602F002007B5044B0093044A4023FFF7A4
:1098D00069FF03B05DF804FBE1980200612F0020EE
:1098E00038B50D480D4C0E4D002323700378EB5C0A
:1098F000D2B263B10430FFF707FF08B1FCF740FEB6
:10990000084B1A7812B12378002BFBD038BD0C30ED
:10991000FFF7A8FCF1E700BFEC2B0020A12F0020EF
:10992000982E0020602F002008B50848084A0378C8
:10993000D35C3BB10430FFF74BFEBDE8084000208C
:10994000FFF79ABF0C30FFF717FCF6E7EC2B00206F
:10995000982E00200120FFF78FBF000008B5FFF709
:10996000F9FF0448042100F07DFA034B01225A71EB
:1099700008BD00BF102F0300002C0020037813F057
:10998000040216D003F00303012B03D0022B09D0ED
:10999000012070470A6800880232C0F38310024435
:1099A0000A60F5E70B684288023303EB92130B6001
:1099B000EEE71046704700002DE9F04FDFF81CA1DC
:1099C00087B00F4600230446861C0DF1070015469C
:1099D0008DF80730FDF734F8DAF804203A60DAF849
:1099E000083003F580739B1A0AF21C470AF5836955
:1099F0000AF21448B3421AD30020002D69D004F0B3
:109A00000F039B0143F0050363F30F00DAF8043002
:109A1000DAB2033233444AF822009DF80700CAF84C
:109A20000430FDF731F8012007B0BDE8F08F0121C7
:109A30003846FDF7EDFF4846FEF702F84046FDF7D1
:109A4000FFFFDAF808000290C0B203300AEB800092
:109A500002A9FFF793FF029B30BBDAB20AEB820246
:109A6000D16803919A1C0133DBB20AEB83030292A3
:109A7000D3F80CB001F00303012B22D0022B15D038
:109A800083464046FDF7DFFF10B1029BCAF808305D
:109A900059463846FDF7BCFFDAF80830DAF80420FA
:109AA00003F580739B1AA5E7D8B2CEE7BDF80E3058
:109AB000C3F3891303334FEA1B4B02EB9303029367
:109AC000DFE7BDF80C30C3F383134FEA1B4B13449D
:109AD000F5E7A40544F0060098E700BF74300020C5
:109AE000064B074810B500221A70FEF70CFC04461E
:109AF00010B90448FEF781FD204610BD74300020E7
:109B0000FC2D03003837030030B50A4C71B10A4A06
:109B10000A49121BD20800239A4201D1002030BD0D
:109B200031F82350854202D00133F5E7034654F85B
:109B30003300F4E7182E0300102F0300E42B00205D
:109B4000094B013903EBC000032909D8DFE801F014
:109B50000A02040604207047007970474079704774
:109B60000020704702207047182E03007047000045
:109B7000034BD3E90130C31A58425841704700BF24
:109B8000743000202DE9F04186B0FFF7F1FF054663
:109B9000002840F0ED80774CC4F81804BFF34F8FD5
:109BA000A3680293DBB2033304EB830002A9FFF73F
:109BB000E5FE029B18B1D4F81824002A5AD0DAB274
:109BC000991C013304EB8202DBB204EB8303D268FD
:109BD000DB68049302F00303022B0392029154D139
:109BE000BDF80E306448C3F38917502F3E4628BF96
:109BF000502606F1080166F38F13C1F30901ADF891
:109C00000E30FEF798FB0546002800F09C80FEF71A
:109C1000C1FB0023082203A92846FEF7CDFB0299C9
:109C2000CB43DBB20133C9B20331B6EB830F4FEA4A
:109C3000830204EB810125D95FFA82F80823A6EBA1
:109C400008062846FEF7B8FBF6B208F108034B49B0
:109C500003F0FC0332462846FEF7AEFB029B0337B7
:109C600003EB97070297D4F81834002B43D1D4F8AC
:109C7000106453E062689A4294D8A260284606B005
:109C8000BDE8F08108233246E5E7012B5BD1BDF842
:109C90000C303948C3F38311062928BF062161F32C
:109CA0008913023101F00F018900ADF80C30FEF785
:109CB00042FB0546002846D0FEF76CFB0023082235
:109CC00003A92846FEF778FB0026BDF80C20C2F356
:109CD0008312B300964203F10803C4D202994A1CCE
:109CE000C9B20331029204EB810104222846FEF737
:109CF00063FB0136E9E72846FEF750FBFFF738FF24
:109D000080F00100C5B2B9E7F3685B7923B133682D
:109D100029461B6830469847F3681E68002EF3D129
:109D20002846FEF73BFB0DF107008DF80760FCF7B6
:109D300087FED4F818340BB9029BA3609DF8070086
:109D4000FCF7A2FEDAE7D4F8104454B90C4B0D48E6
:109D50000D49C01AC008000440F0020000F05EF88F
:109D6000CCE7236820469B689847E3681C68ECE7CB
:109D7000002583E774300020FC2D03008030002094
:109D8000182E0300482E0300213703002DE9F34766
:109D900004460E46924601A9012218469946FFF74D
:109DA0000BFE1C4F10B3019D4FF00008AA1CC845C4
:109DB00008EB020125D118480021FDF7E2FD80F3F0
:109DC0001000000440EA1440E4006B1C04F0380466
:109DD000DBB2EDB244F0010407EB8303033544EA40
:109DE000881444EA8624D86047F825403B781BB1A4
:109DF000FFF7C8FE0028FBD1FFF7B8FE02B0BDE8B0
:109E0000F087C9B207EB81015AF82830CB6008F11E
:109E10000108CCE7743000209034002000231A465B
:109E2000FFF7B4BF07B50123019201AAFFF7AEFF08
:109E300003B05DF804FB07B5CDE9002302236A46B1
:109E4000FFF7A4FF03B05DF804FB1FB5CDE90123C4
:109E5000069B039301AA0323FFF798FF05B05DF863
:109E600004FB000030B50F4CD4F81024034600204A
:109E7000114631B9D96808714AB9C4F810340A607A
:109E800030BDC9680D79854206D00968F1E7D2680E
:109E900014680C601360F3E701300A28E8D14FF032
:109EA000FF30EDE77430002038B5084B0125D3F8BA
:109EB00010441D7004B938BDE3685D712368204605
:109EC0005B689847E3681C68F4E700BF74300020C3
:109ED00030B5C38885B004460D4633B1144A0092AC
:109EE0001449154A2846FDF711FE217A05291DD08F
:109EF000637A4BB1A088FFF723FE104B104953F84B
:109F000020202846FDF702FE227A0E4BA08853F847
:109F1000222003920021FFF7F7FD039A0A49034626
:109F2000284605B0BDE83040FDF7F0BD05B030BDB6
:109F3000643703004C37030044370300D037030075
:109F4000725B0300F43703006937030007B503466B
:109F50000846197A052911D05B7A2BB1094A0A49BA
:109F60000190FDF7D3FD019808490190FDF7CEFD62
:109F7000019803B05DF804EBFDF7BDBD002AF8D0F1
:109F8000F2E700BF64370300725B0300CB5A0300A3
:109F90002DE9F04385B01F460C9D002395F80C90E9
:109FA0002B7306460C46904629463846FFF790FF2D
:109FB000B8F1060F09D8DFE808F00412181F28339B
:109FC000400031462846FDF7A1FD002229463846CB
:109FD000FFF7BCFF85F80C9005B0BDE8F083226860
:109FE00031462846FDF792FDEFE7D4E900233146DC
:109FF0002846FDF78BFDE8E7A36800933146D4E9D6
:10A0000000232846FDF782FDDFE7E3680193A3689C
:10A0100000933146D4E900232846FDF777FDD4E7C5
:10A0200023690293E3680193A36800933146D4E95E
:10A0300000232846FDF76AFDC7E763690393236998
:10A040000293E3680193A36800933146D4E90023A7
:10A050002846FDF75BFDB8E708292DE9F74F804654
:10A060000E4617461C463DD800251B7B257321460E
:10A0700010460193FFF72CFFDFF88CA0DFF88CB0BF
:10A08000AE4232D918F8052059462046FDF73EFD6C
:10A090000135082DF4D11B49DFF874A0DFF874B046
:10A0A0002046FDF733FD4FF000094E4524D918F83E
:10A0B00009507E2D1ED8284605F01CF9002814BF33
:10A0C0002A462E2259462046FDF720FD09F10109B6
:10A0D000B9F1080FE9D1012221463846FFF736FFD2
:10A0E000019B237303B0BDE8F08F51462046FDF776
:10A0F0000DFDCDE72E22E5E751462046FDF706FD92
:10A10000E4E700BF7D3703007937030073370300AE
:10A110007B3703007F3703004FF48C72002105F07A
:10A1200054B918B14FF48C7100F05ABE704700005A
:10A13000C02AF0B541D0B2F5807F40D0802A40F0EF
:10A14000C5800A230446036000F10803520944F85D
:10A15000043F01EB82028A4233D103680C2B3ED0CC
:10A160000E2B6CD00A2B26D15A4D5B4900F1A0066C
:10A17000426955F8044B8768C2F307237C40CB5CE7
:10A180006340140E10300C5D83EA0443D4B20C5DBE
:10A1900083EA0463C2F307440C5D83EA042350F8A6
:10A1A000044C836063400468C360634003615340B0
:10A1B00043618642DCD100208AE00C23C2E70E23F3
:10A1C000C0E78B784D781B0443EA05230D782B43B9
:10A1D000CD7843EA056344F8043F0431BBE73D4CC6
:10A1E0003D4900F1C005C26954F8046B8768C2F3A9
:10A1F00007237E40CB5C7340160E18308E5D83EAD9
:10A200000643D6B28E5D83EA0663C2F307468E5DCF
:10A2100083EA062350F80C6C8360734050F8086C96
:10A22000C360734050F8046C036173400668436177
:10A23000734083615340C3618542D4D1BBE7254D50
:10A24000254900F1E006446A55F8042B8768C4F3F9
:10A2500007237A40CB5C87695340220E20308A5C0A
:10A2600083EA0243E2B28A5C83EA0263C4F30742F0
:10A270008A5C83EA022350F8142C8360534050F820
:10A28000102CC360534050F80C2C03615340DAB2D9
:10A2900043618A5C7A401F0ECF5D82EA0762C3F396
:10A2A0000727C3F30743CF5DCB5C82EA072282EA2C
:10A2B000034350F8042C836153400268C361534048
:10A2C0000362634043628642BDD174E76FF01F00B2
:10A2D000F0BD00BF08490300083803002DE9F04F26
:10A2E00091B043680D6808951C68DFF848C3CD4FEE
:10A2F000CD4E6C404D68099508945C686C408D6843
:10A300000A9509949C686C400A94CC680B9403F1FC
:10A3100010010791D968C54D61400B910168491042
:10A3200001910139029130330091DDE9089ADDE9AC
:10A330000A815FFA89F4080E5CF8244057F820007F
:10A340004440CAF307205FFA81FE56F820005CF80B
:10A350002EE04440C8F307405FFA88FB55F8200020
:10A360005CF82BB0444053F8200C6040C4B2039416
:10A37000040E0494C0F307440594C0F30724069424
:10A380004FEA1864C8F3072857F824408EEA040EF1
:10A39000C9F30724203356F824408EEA040ECAF38A
:10A3A000074455F824408EEA040E4FEA1A645FFA17
:10A3B0008AFA57F824405CF82AA08BEA0404C1F317
:10A3C000072BC1F3074156F82BB055F8211084EA4A
:10A3D0000B04C9F3074B4FEA196955F82BB057F82E
:10A3E00029908AEA090956F828A089EA0A0A8AEA1D
:10A3F00001090099002984EA0B0400F39780029B6D
:10A400000C905E01019B002B079BD8BF00263344B4
:10A410001E46596889EA01010D91986860400E90C6
:10A42000DB688EEA0304250E814B0F9413F805C0F8
:10A43000039D5F5D35696F40C1F3072587EA0C67AF
:10A440005D5D87EA0527C0F307455D5D87EA05473F
:10A45000049D089713F805C0756985EA0C6CCDB2A8
:10A460005D5D8CEA050CC0F307255D5D8CEA052C6B
:10A47000C4F307455D5D8CEA054C059DCDF824C00D
:10A4800013F80580B56985EA0848C5B2000E5D5D20
:10A4900088EA05080D0EC1F307415D5D88EA05688D
:10A4A000C4F307255D5D88EA0528069DCDF8288060
:10A4B00013F805E0F569185C177085EA0E255FFA58
:10A4C00084FE82F804C013F80E405B5C82F80880BA
:10A4D000390A5170390C91704FEA1C2151714FEAC1
:10A4E0001C41917165404FEA182185EA006551725F
:10A4F0004FEA184185EA034391724FEA1861D1721D
:10A50000190A5173190C4FEA1C600B931373917362
:10A510001B0E20213C0ED071D4700DEB0100D373C3
:10A5200000F05EFC002011B0BDE8F08F0C9053F8F5
:10A530003C1C89EA0109CDF8349053F8380C039992
:10A5400060400E9053F8344C8EEA04040F944FEAA6
:10A5500014685CF821E053F8301C57F8288081EA31
:10A560000E0E8EEA080EC9F30728049956F82880C3
:10A570008EEA080EC0F3074855F828808EEA080EC8
:10A58000CDF820E05FFA89F857F821E053F82C1C49
:10A590005CF8288081EA0E0E8EEA080EC0F30728C8
:10A5A000059956F828808EEA080EC4F3074855F836
:10A5B00028808EEA080ECDF824E05FFA80FE55F878
:10A5C00021805CF82EE053F8281C8EEA080E4FEA32
:10A5D00019688EEA010E57F8288006998EEA080E4F
:10A5E000C4F30728E4B256F828805CF824408EEAC9
:10A5F000080ECDF828E056F821E0000E84EA0E0E91
:10A60000C9F3074153F8244C57F8200055F821109E
:10A610008EEA040444404C4000990B9401390091A7
:10A6200083E600BF08450300083D0300084103001E
:10A6300008380300083903002DE9F04F91B0436852
:10A640000D6808951C68DFF850C3CF4FCF4E6C40A3
:10A650004D68099508945C686C408D680A9509946A
:10A660009C686C400A94CC680B9403F1100107912C
:10A67000D968C74D61400B910168491001910139BA
:10A68000029130330091DDF82080DDF824A05FFADC
:10A6900088F44FEA1A60DDE90A9157F820005CF867
:10A6A00024404440C1F307205FFA81FE56F82000A1
:10A6B0005CF82EE04440C9F307405FFA89FB55F887
:10A6C00020005CF82BB0444053F8200C6040C4B22A
:10A6D0000394C0F307240494C0F307440594040EC4
:10A6E00006944FEA1864203357F824408EEA040E8B
:10A6F000C9F307244FEA196956F8244057F82990FE
:10A700008EEA040ECAF3074455F824408EEA040E7C
:10A710000C0EC1F3074157F8244055F821108BEA7D
:10A720000404CAF3072B5FFA8AFA56F82BB05CF8D8
:10A730002AA084EA0B04C8F3074BC8F307288AEA67
:10A74000090956F828A055F82BB089EA0A0A8AEABE
:10A7500001090099002984EA0B0400F39780029B09
:10A760000C905E01019B002B079BD8BF0026334451
:10A770001E46596889EA01010D91986860400E9063
:10A78000DB680D0E8EEA0304824B0F9413F805C0AC
:10A79000039D5F5D35696F40C4F3072587EA0C6749
:10A7A0005D5D87EA0527C0F307455D5D87EA0547DC
:10A7B000049D089713F805C0756985EA0C2CCDB285
:10A7C0005D5D8CEA050C050E5D5D8CEA056CC4F3DD
:10A7D00007455D5D8CEA054C059DCDF824C013F856
:10A7E0000580B56985EA0848C5B2C0F307205D5DFC
:10A7F00088EA0508250E5D5D88EA0568C1F307252E
:10A80000C1F307415D5D88EA0528069DCDF82880E3
:10A8100013F805E0F569185C177085EA0E655FFAB4
:10A8200084FE82F804C013F80E405B5C82F8088056
:10A83000390A5170390C91704FEA1C2151714FEA5D
:10A840001C41917165404FEA182185EA002551723B
:10A850004FEA184185EA034391724FEA1861D172B9
:10A86000190A5173190C4FEA1C600B9313739173FF
:10A870001B0E20213C0ED071D4700DEB0100D37360
:10A8800000F0AEFA002011B0BDE8F08F0C9053F844
:10A890003C1C89EA0109CDF8349053F8380C03992F
:10A8A00060400E9053F8344C8EEA04040F944FEA43
:10A8B00019685CF821E053F8301C57F8288081EAC9
:10A8C0000E0E8EEA080EC4F30728049956F8288065
:10A8D0008EEA080EC0F3074855F828808EEA080E65
:10A8E000CDF820E05FFA89FE56F821805CF82EE072
:10A8F00053F82C1C8EEA080E4FEA10688EEA010EFF
:10A9000057F8288005998EEA080EC4F3074855F8D1
:10A9100028808EEA080ECDF824E05FFA80FE55F814
:10A9200021805CF82EE053F8281C8EEA080E4FEACE
:10A9300014688EEA010E57F8288006998EEA080EF0
:10A94000C9F30728E4B256F828805CF824408EEA60
:10A95000080ECDF828E057F8218053F8241CC0F3E6
:10A96000072081EA0808C9F3074156F8200055F886
:10A97000211088EA040E8EEA000E8EEA01010B9186
:10A980000099013900917EE630560300304E0300F5
:10A990003052030030490300304A030010B40C4623
:10A9A000012C11461A4603D15DF8044BFFF796BC03
:10A9B0005DF8044BFFF740BE2DE9F04FB2F5C07FC4
:10A9C000ADF5417D06468846144600F2C3804FF43B
:10A9D000D072002158A812AD04F0F7FC2846FFF70A
:10A9E0009BFB230A8DF8723120238DF877315EAB03
:10A9F00000272246184641468DF870718DF8717116
:10AA00008DF8734104F0B8FC8022025502AA3B463F
:10AA1000934602F8013B0133102BFAD180225946AC
:10AA20002846FFF785FB0346002872D119340746F4
:10AA30000DF1280A1022002106A804F0C6FCA14648
:10AA40000DF5B07806AA08F1FF3308F10F00117870
:10AA500013F801CF81EA0C01834202F8011BF6D101
:10AA600006ABB9F1100F1A464FF00101284694BF0A
:10AA7000A9EB0909A9F11009FFF790FF08F11008E7
:10AA80000346002845D1B9F1000FDBD10DF1180CB8
:10AA900007EB0A02634603CB5345106051609C46A6
:10AAA00002F10802F6D19DF8633110370133202FEF
:10AAB0008DF86331BED1802251462846FFF738FB1E
:10AAC000034630BB0EAB1A4601212846FFF766FF4E
:10AAD0000346F0B90EAC3246234603CBAB421060BE
:10AAE00051601C4602F10802F6D10EAB1A46012154
:10AAF0002846FFF753FF06F11004034648B90EAA93
:10AB0000174603CFAF42206061603A4604F1080463
:10AB1000F6D128460193FFF704FB4FF4D07158A8F3
:10AB200000F05EF920210AA800F05AF910215846D9
:10AB300000F056F9102106A800F052F9019B23B14C
:10AB40002021304600F04CF9019B18460DF5417D5F
:10AB5000BDE8F08F6FF03703F7E72DE9F04389B0D8
:10AB600004460E4620220021684604F02EFC0027F1
:10AB700004F12009E8460DEB070304F10F010A7800
:10AB80000132D2B2084601F801290AB9A042F6D131
:10AB9000224601214846FFF701FF0546F8B9103764
:10ABA000202FE7D1731E1F3698F8002013F8011FDD
:10ABB0004A40B34208F8012BF6D180226946484644
:10ABC000FFF7B6FA054650B904AA08AE134603CB00
:10ABD000B342206061601A4604F10804F6D1684669
:10ABE000202100F0FDF8284609B0BDE8F08310B53B
:10ABF0004FF4A0720446002104F0E7FB4FF6F07317
:10AC0000E36110BD10B5044650B12030FFF789FA5A
:10AC10004FF4A071204600F0E3F84FF6F073E361C3
:10AC200010BDF0B58669B6F5C07FE1B005460F46A8
:10AC3000144632D8C6F5C07393422ED34FF4C07277
:10AC40000021684604F0C1FBD5F83831D5F83C0145
:10AC500032466946984718BBAE693FB134B10DEB37
:10AC600006002246394604F087FB264432466946F0
:10AC70006846FFF7A1FE044638B969462846FFF743
:10AC80006CFF044608B901232B614FF4C07168467C
:10AC900000F0A6F8204661B0F0BD6FF03704F9E788
:10ACA0006FF03304F6E7F0B587B004460F4616465A
:10ACB0000021102202A81D4604F087FB04F12000A9
:10ACC0000190FFF729FAA3690198C4E94E760BB900
:10ACD0002023A361802202A9FFF72AFA20B90C9A47
:10ACE00029462046FFF79DFF07B0F0BD2DE9F04152
:10ACF0008CB0B2F5806FDDF8488005460F461646E9
:10AD00001C465ED8B8F5807F5ED82022002104A8BA
:10AD100004F05BFB2A69EB699A4201DC6B699BB129
:10AD2000214642462846FFF77CFF044628BB05F132
:10AD3000200836BB04A92846FFF70FFF0446A0B938
:10AD40002B6901332B6110E0B8F1000FEFD02146E1
:10AD5000424604A8FFF730FE044630B904A928464D
:10AD6000FFF7FBFE04460028E1D0202104A800F0F4
:10AD700037F81021684600F033F820460CB0BDE8E3
:10AD8000F08105F10F0213780133DBB2114602F8AE
:10AD900001390BB9A942F6D16B462A46012140463A
:10ADA000FFF7FCFD04460028DFD1102E344628BFF3
:10ADB000102438462246694604F0DEFA2744361B42
:10ADC000B7E76FF03504D8E76FF03704D5E707B57C
:10ADD00000230093FFF78AFF03B05DF804FB000037
:10ADE0000A4619B1024B00211B681847704700BF83
:10ADF000082C002028B139B10023C1E900301846E1
:10AE0000704748F21050704748F21350704730B105
:10AE1000036848F240508B4208BF0020704748F258
:10AE20001050704730B119B10B68934205D30A60D6
:10AE30000020704748F21350704748F21450704792
:10AE40002DE9F0410C4600AF8046114620461546DC
:10AE50001E46FFF7CFFF00BB31462046FFF7CAFF73
:10AE6000D8B92279104B53F82230CBB1B8F1000F8A
:10AE70000AD10E4931F8124034B107346A46E40869
:10AE8000A2EBC4029546E84632462946404698471A
:10AE900018B9074B2B60063B3360BD46BDE8F08117
:10AEA00048F20350F9E700BF385A0300305A030054
:10AEB0007652464D70B505460C461E46FFF79AFF82
:10AEC00070B9AB796AB1B3420ED12979094B53F805
:10AED000213063B111462046984708B9064B2360DC
:10AEE00070BD48F21050FBE748F21150F8E748F205
:10AEF0000350F5E7445A03007052464D2DE9F041E6
:10AF00000D460D4904461646FFF781FF90B9676864
:10AF10003146BA792846FFF785FF58B93A79074B89
:10AF200053F8223023B129462046BDE8F0411847A6
:10AF300048F20350BDE8F0817052464D505A03006C
:10AF4000F0B530B14079B3B1C9B18AB948F2135301
:10AF500013E01846F7E7441E00254E5D0F5D575578
:10AF600016550135013CA542F7D91B1A014402448C
:10AF70008342F0D20BB148F211531846F0BD48F2AB
:10AF80001053FAE7054B1A78022A04D01878431EAA
:10AF90005842584170470120704700BF2C350020AF
:10AFA00030B50023934201D1012006E0C55CCC5CA2
:10AFB000A54203D08CBF0120002030BD0133F1E752
:10AFC0002DE9F74F9DF830B01746054688461E46D6
:10AFD000002296424FEAC2094DD1FF2309F108022F
:10AFE0005B0033F0FF0103D109F101094A45F7D1B4
:10AFF000002D45D0002E46D0B8F1000F46D0002FCE
:10B0000044D0324641463846FFF7CAFF002840D0B8
:10B0100009F007030093009AFF2313415BB24FEA44
:10B02000D90A019305EBD9091B485B4600683246F3
:10B030002946FBF793FA0446C8B90146524628460A
:10B0400004F0C3F9009B2BB199F80020019B1A4032
:10B0500089F80020324641462846FFF7A1FF002824
:10B06000E2D029463846FFF79BFF0028DCD0204677
:10B0700003B0BDE8F08FBB5C002BAFD10132A8E775
:10B0800048F21354F3E748F21454F0E748F210542E
:10B09000EDE748F21754EAE77C36002013B50124A7
:10B0A0000094FFF78DFF02B010BD000070B506469A
:10B0B0000D466A46194B9A4205D3FFF763FF78B9EC
:10B0C0004FF4054070BD164B16481749C01AC0080A
:10B0D000000440F00100FEF7A1FE48F21950F1E72C
:10B0E000124C236823B1124B1A68124B9A420FD0AC
:10B0F00086B97DB9104811492060FBF70BFA00288A
:10B10000E0D10B4B0B4A1A6023680D4A1A60D9E74D
:10B110000020D7E748F21750D4E700BF00E0002036
:10B12000182E0300482E03005C5A03007C360020D2
:10B13000743600206572E54B3035002078360020EB
:10B140006169614D094B0A4A196891420AD1094A5D
:10B150001068094A0168914204D1002202601A6015
:10B16000FBF7F4B948F20250704700BF7436002074
:10B170006572E54B7C3600206169614D10B56C4607
:10B18000154B9C420FD3DAB9144B1C68144B9C42EC
:10B190001BD1E8B913481346BDE810400A460068C1
:10B1A0001149FBF7E3B9114B11481249C01AC00805
:10B1B000000440F00100FEF731FE48F2195010BDC6
:10B1C0000029E1D148F21050F9E748F20250F6E7C1
:10B1D00048F21750F3E700BF00E00020743600206B
:10B1E0006572E54B7C36002078360020182E03006F
:10B1F000482E03005C5A030073B513460D460446FF
:10B20000F8B111B3144A1168144A914220D1144E76
:10B2100001932A4601463068FBF7A0F948F27152C3
:10B22000904210D1002211461046FFF7A7FF50B9F7
:10B23000019B30682A46214602B0BDE87040FBF70A
:10B240008DB948F2135002B070BD48F21450FAE7BD
:10B2500048F20250F7E700BF743600206572E54BF4
:10B260007C3600200122FFF7C7BF000010B51F4C3D
:10B270002378012B12D0022B24D073B91C4B1D480C
:10B280001D49C01AC008000440F00300FEF7C6FDC7
:10B290001A4BEE225A700123237010BD1849174A29
:10B2A0000B78EE200133DBB25070DD209070312B33
:10B2B0004FF0CC000B701370D070EED900230B70E0
:10B2C0000223E9E70A4B0B480E49C01AC0080004E4
:10B2D00040F00300FEF7A2FD084B186800F0CEF81E
:10B2E00000232370084B01221A70D6E78536002010
:10B2F000182E0300482E0300755A030080360020E4
:10B3000086360020805A03008736002038B5184C56
:10B310002578012D15D0022D19D08DB9154B164861
:10B320001649C01AC008000440F00300FEF776FD7D
:10B3300000F0DEF84EF6602000F018F901232370CB
:10B3400038BD00F03FF90028FAD00223F7E7094B97
:10B3500009480B49C01AC008000440F00300FEF77A
:10B360005DFD00F0D3F8074B1D700023E7E700BF39
:10B3700084360020182E0300482E0300905A030044
:10B380009A5A03008736002008B50B4800F004F9EC
:10B39000FDF73EF8FDF73CF8084B09480949002243
:10B3A0001A70094BC01AC0080004BDE8084040F0FC
:10B3B0000300FEF733BD00BF20BF02008736002028
:10B3C000482E0300A95A0300182E030008B54FF4B5
:10B3D00080410020FEF784FB08B1FBF7D1F8FEF7AF
:10B3E000BDFA00F0A9F8FCF7FDFF08B1FBF7C8F8BB
:10B3F00000F02CF80E4B0F480F49104CC01AC00833
:10B40000000440F00300FEF709FD2378012B09D06A
:10B41000022B0AD00BB9FFF729FFFEF7B3FB002878
:10B42000FBD1F2E7FFF772FFF7E7FFF7ADFFF4E7B5
:10B43000182E0300482E0300B75A03008736002059
:10B4400072DF704773DF704774DF704707B503F032
:10B450002DFC08B1FBF794F8002301A9012001930A
:10B4600003F0F6FC08B1FBF78BF801A803F0AEFD82
:10B4700008B1FBF785F803B05DF804FB10B5184B75
:10B4800094B059220190ADF80820186004243C22A1
:10B49000002105A80493ADF80C4003F096FF02AB21
:10B4A0000E93104B8DF8174018220021184603F018
:10B4B0008CFF05220270A02282600B4A05A852F878
:10B4C000041B00F0ADFB08B1FBF75AF8054A06492A
:10B4D0000648FFF7B5FF08B1FBF752F814B010BDEE
:10B4E000BF360020883600200C2C00201C2C0020A9
:10B4F00008B5054B01211878FFF7A4FF18B1BDE886
:10B500000840FBF73DB808BD1C2C002008B5054BD2
:10B510001878FFF799FF18B1BDE80840FBF730B87D
:10B5200008BD00BF1C2C0020014B01221A7070477F
:10B53000C33600207047000008B5FBF701F908B1D9
:10B54000FBF71EF8054A06480021FBF72BF9BDE87A
:10B550000840044A04480021FBF724B929B5020039
:10B56000D05A030035B50200D45A030008B501468D
:10B570004FF47A704FF4FA62002300EBC130490CAB
:10B5800003F003FEBDE80840014600220148FBF736
:10B590001BB900BF202C002008B501464FF47A707B
:10B5A0004FF4FA62002300EBC130490C03F0EDFDCB
:10B5B000BDE80840014600220148FBF705B900BF7D
:10B5C000402C0020024B002218781A70704700BFF0
:10B5D000C33600204FF08053D3F83001421C04BF23
:10B5E0004FF0704393F8E00F831F58425841704763
:10B5F0004FF0704393F8E02F062A09D1D3F8E83FC3
:10B60000C3F30313033B042B02D8024AD05C7047F8
:10B6100000207047E75A0300024AD2F80034002B9A
:10B62000FBD0704700E0014010B5FFF7D3FF40B1F9
:10B630004FF08053944AD3F82433C3F30423C2F861
:10B640004035FFF7D5FF10B1904B914A5A67FFF78D
:10B65000C1FF48B14FF080534FF08042D3F84432DD
:10B66000C3F34233C2F83C35FFF7C2FF30B1894A19
:10B67000D2F8FC3023F08073C2F8FC30FFF7AAFF49
:10B6800040B14FF080430022C3F80C21C3F81021D1
:10B69000C3F83825FFF7ACFF20B14FF080430322F9
:10B6A000C3F8A025FFF7A4FF60B17B4B0522C3F8C8
:10B6B00010260122C3F888260022C3F818263F224C
:10B6C000C3F814264FF08053D3F83021511C09BF22
:10B6D0004FF07043D3F8343193F8E02FD3F8E83FBC
:10B6E00008BFC3F30313062A4DD1033B042B03D831
:10B6F0006A4AD35C002B46D04FF08052684BD2F898
:10B700000414C3F82015D2F80814C3F82415D2F88D
:10B710000C14C3F82815D2F81014C3F82C15D2F85D
:10B720001414C3F83015D2F81814C3F83415D2F82D
:10B730001C14C3F84015D2F82014C3F84415D2F8ED
:10B740002414C3F84815D2F82814C3F84C15D2F8BD
:10B750002C14C3F85015D2F83014C3F85415D2F88D
:10B760003414C3F86015D2F83814C3F86415D2F84D
:10B770003C14C3F86815D2F84014C3F86C15D2F81D
:10B780004424C3F87025FFF725FF48B14FF08053DC
:10B790004FF08042D3F8583203F04F03C2F8E43E32
:10B7A000FFF718FF48B14FF08043D3F80024D207C9
:10B7B00044BF6FF00102C3F800244FF08053D3F868
:10B7C0003021062A0ED1D3F83431033B042B02D8A2
:10B7D000344AD35C33B1344AD2F83C3743F4806303
:10B7E000C2F83C372B4AD2F8883043F47003C2F8D1
:10B7F0008830BFF34F8FBFF36F8F4FF08053D3F874
:10B800003021062A0FD1D3F83431033B042B02D860
:10B81000264AD35C3BB14FF01023D3F808224FF0F7
:10B820008043C3F858254FF01023D3F80022002A94
:10B8300003DBD3F80432002B22DA1D4901234FF039
:10B840001020C1F804351524FFF7E6FEC0F80042C9
:10B85000FFF7E2FEC0F80442FFF7DEFE0023C1F866
:10B860000435FFF7D9FEBFF34F8F0A49114BCA6861
:10B8700002F4E0621343CB60BFF34F8F00BFFDE7DC
:10B880000D4B0E4A1A6010BD0030014000C0074049
:10B890000DF0ADBA00ED00E000500040D85A0300B2
:10B8A00000C00040DD5A030000100040E25A0300CF
:10B8B00000E001400400FA05602C00200090D00355
:10B8C0001B4B70B5014608254FF0FF3000269A7CCF
:10B8D00072B15A7CBAB1DA688A4205D9521ADA6072
:10B8E000904228BF104603E01A7C5E742AB99A740D
:10B8F000013D03F11403EAD170BDB0F5203F28BF2C
:10B900004FF42030F4E71C7C0CB99C74F0E79A6883
:10B910000A44B2F5203F9A6024BFA2F520329A6013
:10B920009A6824BF04F1FF341C74C2F52032D7E7B3
:10B93000C43600202DE9F04F85B00DF108084146CE
:10B94000054601F0D9FA80B1FCF7BAFE544C5549CE
:10B9500002465548241AE40824042B4644F0020009
:10B96000FEF769FA05B0BDE8F08F5048FAF75AFFC4
:10B97000064668B1FCF7A4FE494B4D4902464A48C9
:10B980001B1ADB081B0443F00200FEF74BFAE9E741
:10B99000484CFAF773FF2168FAF76BFFFFF790FF47
:10B9A0000546FAF76BFF2060434C01230827A146A8
:10B9B0004FF47A6AB346A27C002A60D00622611C4A
:10B9C0000DF10900019303F09DFC019B08BB237C52
:10B9D000C4F808B00AFA03F2B2F57A4FBCBF0133DB
:10B9E000DBB20AFA03F04FF4004E4FF47A7C59466A
:10B9F000C0FB0EC123744FF4FA620023604603F0CB
:10BA0000C4FB4FF0010385426374E06028BF054624
:10BA100000230136082E04F11404CCD1002B3AD0B7
:10BA2000082F2ED0142398E803005F4309EB070387
:10BA300049F807009980090C4FF480329971002170
:10BA4000C3E902124FF48072B5F5803F1A824FF0BD
:10BA5000010228BF4FF480359A7414482A462946BB
:10BA6000FAF7B2FE00283FF47DAFFCF729FE0C4B3D
:10BA7000124902460C481B1ADB081B0483E73746B1
:10BA8000C7E70748084B0E49C01AC008000440F039
:10BA90000200FEF7C3F96B1C3FF464AFDDE700BFA3
:10BAA000B02E03000A5B0300182E0300682C002050
:10BAB000585B030064370020C4360020EC5A0300B2
:10BAC000755B030037B56946054601F015FA044673
:10BAD00080B1FCF7F5FD114C114902461148241ABA
